:020000040800F2
:10000000008000209969000861030008630300086C
:10001000650300086703000869030008000000008A
:100020000000000000000000000000006B0300085A
:100030006D030008000000006F0300087103000852
:10004000E9690008E9690008E9690008E969000848
:10005000E9690008E9690008E9690008E969000838
:10006000E9690008E969000883030008E9690008F4
:10007000E9690008E9690008E9690008E969000818
:10008000E969000800000000E9690008E969000862
:10009000E9690008E9690008E969000879030008CE
:1000A000E9690008E9690008E9690008E9690008E8
:1000B000E9690008E9690008E9690008E9690008D8
:1000C000E9690008E9690008E9690008E9690008C8
:1000D000E9690008A1630008E9690008E969000806
:1000E000E9690008E9690008E9690008E9690008A8
:1000F000E9690008E9690008E969000800000000F2
:1001000000000000E969000800000000E96900083B
:10011000E9690008000000006D1A0008F164000899
:10012000E9690008E9690008E9690008E969000867
:10013000E96900080000000000000000E96900080B
:10014000E9690008E96900080000000000000000FB
:10015000000000000000000000000000000000009F
:10016000000000000000000000000000E969000835
:10017000E969000800000000000000000000000025
:1001800000000000E9690008000000000000000015
:10019000000000000000000000000000000000005F
:1001A0000000000000000000E9690008E96900089B
:1001B000E9690008E9690008E96900080000000031
:1001C00000000000E96900080000000000000000D5
:0801D000E9690008E969000873
:1001D80010B5054C237833B9044B13B10448AFF379
:1001E80000800123237010BD3C00002000000000A7
:1001F8005C6A000808B5034B1BB103490348AFF319
:10020800008008BD00000000400000205C6A000873
:10021800034613F8012B002AFBD1181A013870473E
:1002280030B589B000240394049405940694079487
:10023800184BDA6C42F00102DA64DA6C02F001025F
:100248000192019ADA6C42F00202DA64DB6C03F084
:1002580002030293029B104D22464FF480712846F8
:1002680000F0A5FC4FF4006303930494059403A9DC
:100278004FF0904000F0C4FB4FF4807303930123C8
:10028800049302230593069403A9284600F0B8FBBB
:1002980009B030BD001002400004004872B6FEE705
:1002A80000B595B03822002106A806F0CAFB002048
:1002B8000190029003900490059000F08DFC0223B9
:1002C80006934FF48072099240220A920D930E937E
:1002D80004220F925522109211931293139306A899
:1002E80000F092FD80B90F230193032302930023AA
:1002F80003930493059304210DEB010001F03CF8EE
:1003080020B915B05DF804FBFFF7C8FFFFF7C6FF7B
:1003180008B500F05BF8FFF7C3FFFFF781FF01F0B6
:1003280045FF002008BD000082B00A4B1A6E42F05B
:1003380001021A661A6E02F001020092009A9A6D82
:1003480042F080529A659B6D03F080530193019BA4
:1003580002B0704700100240FEE7FEE7FEE7FEE746
:10036800FEE770477047704708B500F03FF808BDD2
:1003780008B5202000F020FC08BD08B5102000F0CA
:100388001BFC08BD054BD3F8882042F47002C3F863
:1003980088204FF000629A60704700BF00ED00E0CF
:1003A80010B5094B4FF0FF329A6300249C631A641E
:1003B8001C649A629C62DA62DC621A631C6300F055
:1003C80009FC204610BD00BF0010024010B50320F4
:1003D80000F032F80F2001F0EDFA10B101242046A8
:1003E80010BD0446FFF7A0FFF9E70000034A1368B1
:1003F800034909680B441360704700BF5801002087
:1004080004000020014B1868704700BF5801002005
:1004180038B50446FFF7F6FF0546B4F1FF3F02D0B2
:10042800044B1B681C44FFF7EDFF401BA042FAD3A6
:1004380038BD00BF04000020074AD36823F4E063F6
:100448001B041B0C000200F4E060184340F0BF607E
:1004580040F40030D060704700ED00E030B4174B36
:10046800DB68C3F30223C3F10704042C28BF042468
:100478001D1D062D18D9033B4FF0FF3505FA04F46E
:1004880021EA0401994005FA03F322EA0303194318
:1004980000280BDB0901C9B200F1604000F561409A
:1004A80080F8001330BC70470023E5E700F00F0028
:1004B8000901C9B2024B1954F4E700BF00ED00E08E
:1004C80014ED00E0002807DB00F01F0240090123BB
:1004D8009340024A42F82030704700BF00E100E034
:1004E80070B400240FE011F8246001EB84056B78E8
:1004F8001B0443EA0663AE7843EA0623EE780568F0
:1005080033432B600134B4EB920FECD312F00302A7
:1005180005D0012A07D0022A0AD0032A12D003687C
:10052800186870BC7047036811F824501D70F2E712
:1005380011F8245001EB84035B7843EA052305682E
:100548002B80EAE711F8242001EB84014B7843EA79
:1005580002230268138003688A781A70DFE7002391
:10056800B3EB520F18D270B431F8236001EB830457
:100578006488056844EA06442C600133B3EB520FE3
:10058800F2D312F0010F03D0026831F82330138040
:100598000368186870BC704712F0010F03D0026836
:1005A80031F82330138003681868704770470000DB
:1005B800002838D010B50446437F1BB30223637765
:1005C80023791BBB2368194A5A612268936823F070
:1005D80018039360637913BB23684FF0FF321A61E5
:1005E8002268936823F0600361690B439360226873
:1005F800936823F08003A1690B4393600123637719
:10060800002010BD0377FFF7D1FFD7E7E268A168A4
:10061800204600F02EF80028DCD00120F1E72368FE
:1006280022691A61DCE70120704700BFB71DC104C9
:1006380038B5044602234377036A022B16D0032BEE
:100648000FD0012B0FD0002008E0206851F823506C
:10065800056001339342F8D3236818680123637750
:1006680038BD0023F6E7FFF73BFFF7E7FFF777FF13
:10067800F4E730B41F24651E3CB105F01F0321FACE
:1006880003F32C4613F0010FF5D0182A23D8DFE81E
:1006980002F00F222222222222221E22222222229B
:1006A80022221A222222222222220D00062D14D8CA
:1006B8000368596101688B6823F018031A438A603C
:1006C800002030BC7047072DF2D90120F9E70F2D23
:1006D800EED90120F5E70120F3E70120F1E700005A
:1006E80010B4064C616941F0010161610260BFF319
:1006F8006F8F43605DF8044B704700BF00200240D5
:1007080010B40B4A536943F480235361EFF3108408
:1007180072B6402351F8042B40F8042B013B13F028
:10072800FF03F7D184F310885DF8044B704700BFCE
:1007380000200240094B5B69002B01DB0020704759
:10074800064B074A9A6002F188329A605B69002B6F
:1007580001DB002070470120704700BF00200240E5
:1007680023016745054B5A6942F000425A615B69AB
:10077800002B01DB01207047002070470020024059
:1007880038B50546FFF73EFE0446134B1B6913F4C4
:10079800803F06D0FFF736FE001BA842F5D903209C
:1007A80038BD0D4B1B694CF2FA32134009D10A4B84
:1007B8001B6913F0010F0CD0074B01221A610020AE
:1007C800EEE706494A681A434A60034A1361012062
:1007D800E6E70020E4E700BF002002400C0000200C
:1007E8002DE9F0411E4C2478012C37D09846174645
:1007F8000E4605461A4B01221A704FF47A70FFF71D
:10080800BFFF044690B9164B00225A60A5B16B1E73
:10081800012B18D900254FF47A70FFF7B1FF044671
:1008280025B1104A536923EA050555610C4B00228E
:100838001A702046BDE8F0813A4643463046FFF735
:100848004FFF0125E7E739463046FFF759FF022DEC
:1008580001D00025DFE74FF48025DCE70224E8E734
:100868000C0000200020024010F0010F04D0054ABF
:10087800536943F004035361024A536943F48033D4
:100888005361704700200240084B5A6922F4FC72F9
:10089800C00000F4FF6002435A615A6942F0020244
:1008A8005A615A6942F480325A6170470020024006
:1008B800144B1B7FDBB2012B01D0032B0CD1124A46
:1008C800116841F400611160116821F40061116040
:1008D800116841F400711160023BDBB2012B03D9AE
:1008E800084B00221A777047074B1A6842F4805267
:1008F8001A601A6822F480521A601A6842F48062F8
:100908001A60EDE70C00002000200240F8B53A4BD1
:100918001B78012B6DD00E460446374B01221A7006
:100928004FF47A70FFF72CFF074600285CD1324B52
:1009380000225A60314B1B6813F4007F31D02F4BD3
:100948001A6822F400721A601B6813F4806F24D0AE
:100958002A4A136823F480631360274B03221A770B
:100968002368012B2FD04FF0FF333360A568A368AD
:10097800E2681344AB4235D961682846FFF784FF23
:100988004FF47A70FFF7FCFE1C4A536923F4FD7399
:100998005361074628BB0135E9E7174B01221A774F
:1009A800DEE7164B1B6813F4806F08D0134A1368F0
:1009B80023F480631360104B02221A77D0E70E4BA2
:1009C80000221A77CCE76068FFF74EFF4FF47A7081
:1009D800FFF7D6FE0746094A536923F0040353611B
:1009E80000E03560FFF764FF034B00221A703846B9
:1009F800F8BD0227FBE700BF0C00002000200240E2
:100A0800F0B583B0002336E0052400E00024B440AC
:100A18003C4302355E4E46F825405E4C2568D4437B
:100A280004EA05064F6817F4803F01D042EA05063C
:100A3800584D2E606D6804EA05064F6817F4003FAC
:100A480001D042EA0506534D6E60AD6804EA05061A
:100A58004F6817F4801F01D042EA05064D4DAE607D
:100A6800ED682C404E6816F4001F01D042EA0504D8
:100A7800484AD46001330A6832FA03F400F08680E9
:100A880001249C402240F5D04D686E1E012E03D9EA
:100A9800112D01D0122D12D186685F000325BD40AB
:100AA80026EA0506CD68BD4035438560466826EAD6
:100AB80004064D68C5F300149C4034434460C5687F
:100AC8005F000324BC40E44325408E68BE402E43AB
:100AD800C6604D68022D01D0122D13D1DE080836EC
:100AE80050F826E003F007054FEA850C0F2505FAB4
:100AF8000CF52EEA050E0D6905FA0CF545EA0E050A
:100B080040F8265005682C404D6805F00305BD40A7
:100B18002C4304604C6814F0805FABD01E4C256EEB
:100B280045F001052566246E04F001040194019C3A
:100B38009D08AE1C164C54F8267003F00304A6005A
:100B48000F24B44027EA0407B0F1904F3FF45EAF9A
:100B5800124CA04212D004F58064A04210D004F5D3
:100B68008064A0420ED004F58064A0420CD004F545
:100B78008064A0423FF448AF062448E7012446E7D2
:100B8800022444E7032442E7042440E703B0F0BD0D
:100B98000000014000040140001002400004004829
:100BA8000369194201D100207047012070470AB932
:100BB800816270478161704708B5054B5B690342E4
:100BC80000D108BD024B586105F0B2FCF9E700BF3F
:100BD8000004014070470000002838D13E4B1B68D4
:100BE80003F4C063B3F5806F08D03B4AD2F8803075
:100BF80023F48073C2F8803000207047364AD2F858
:100C0800803023F48073C2F88030136823F4C06303
:100C180043F400731360314B1A68322303FB02F369
:100C28002F4AA2FB03239B0C013300E0013B2A4A15
:100C3800526912F4806F01D0002BF7D1264B5B6903
:100C480013F4806F01D10020704703207047B0F57E
:100C5800007F08D0204A136823F4C06343F48063FC
:100C68001360002070471C4B1B6803F4C063B3F586
:100C7800806F08D0184AD2F8803043F48073C2F8E5
:100C8800803000207047144AD2F8803043F48073D3
:100C9800C2F88030136823F4C06343F40073136010
:100CA8000E4B1A68322303FB02F30D4AA2FB0323FF
:100CB8009B0C013300E0013B074A526912F4806F34
:100CC80001D0002BF7D1044B5B6913F4806F01D17D
:100CD800002070470320704700700040000000208B
:100CE80083DE1B43124AD36803F00303D068C0F3C2
:100CF80003100130032B11D00E4BB3FBF0F30C4A59
:100D0800D068C0F3062000FB03F0094BDB68C3F38F
:100D1800416301335B00B0FBF3F07047064BB3FB54
:100D2800F0F3D068C0F3062000FB03F0EDE700BF46
:100D3800001002400024F40000127A0038B5FFF7D2
:100D480061FB04462C4A136843F4807313602A4BF2
:100D58001B6813F4806F07D1FFF754FB001B0228B0
:100D6800F5D90324204638BD234D6B6843F08043F2
:100D78006B60FFF747FB04460123AB601E4B9B6883
:100D880003F00C03042B08D0FFF73CFB001B41F2D7
:100D980088339842F2D90324E4E7184B184A1A60BA
:100DA800184B186800F006FE044608B10124D9E77C
:100DB800114B4FF480721A601A60FFF723FB054647
:100DC8000D4B1B6813F0007F06D0FFF71BFB401B81
:100DD8000228F5D90324C5E7074B4FF48052DA609F
:100DE80000229A614FF0FF321A62D3F8942042F43D
:100DF8000002C3F89420B5E700100240000000206C
:100E08000024F40008000020002800F05E8270B57D
:100E180082B00446036813F0010F37D0B44A9368D0
:100E280003F00C03D26802F003020C2B23D0082B2A
:100E380023D06368B3F5803F4ED0B3F5A02F51D0CF
:100E4800AB4B1A6822F480321A601A6822F48022A6
:100E58001A606368002B52D0FFF7D4FA0546A44BFA
:100E68001B6813F4003F11D1FFF7CCFA401B64282C
:100E7800F5D9032032E2032AD9D19D4B1B6813F41C
:100E8800003F03D06368002B00F02182236813F031
:100E9800020F5DD0964A936803F00C03D26802F003
:100EA80003020C2B3AD0042B3AD0E368002B75D000
:100EB8008F4A136843F480731360FFF7A3FA05465B
:100EC8008B4B1B6813F4806F5FD1FFF79BFA401BB5
:100ED8000228F5D9032001E2854A136843F48033D8
:100EE8001360B6E703F18043A3F53C331A6842F474
:100EF80080221A601A6842F480321A60A9E7FFF764
:100F080081FA05467A4B1B6813F4003FBED0FFF701
:100F180079FA401B6428F5D90320DFE1022AC2D1FF
:100F2800734B1B6813F4806F03D0E368002B00F049
:100F3800D0816F4A536823F0FE43216943EA016375
:100F480053606C4B186800F035FD002840F0C381F1
:100F5800236813F0080F4CD063699BB3644AD2F836
:100F6800943043F00103C2F89430FFF74BFA05467A
:100F78005F4BD3F8943013F0020F3AD1FFF742FADF
:100F8800401B0228F4D90320A8E1594A536823F0EA
:100F9800FE43216943EA01635360D9E7544A136861
:100FA80023F480731360FFF72DFA0546504B1B6836
:100FB80013F4806FCCD0FFF725FA401B0228F5D92F
:100FC80003208BE14A4AD2F8943023F00103C2F897
:100FD8009430FFF717FA0546454BD3F8943013F0D1
:100FE800020F06D0FFF70EFA401B0228F4D903209F
:100FF80074E1236813F0040F00F081803C4B9B6D73
:1010080013F0805F36D13A4B9A6D42F080529A6560
:101018009B6D03F080530193019B0125364B1B68A0
:1010280013F4807F28D0A368012B39D0052B3FD03B
:101038002F4BD3F8902022F00102C3F89020D3F868
:10104800902022F00402C3F89020A368002B3DD022
:10105800FFF7D8F90646264BD3F8903013F0020F65
:101068004CD1FFF7CFF9801B41F288339842F2D96F
:10107800032033E10025D1E71F4A136843F4807346
:101088001360FFF7BFF906461B4B1B6813F4807FFC
:10109800C9D1FFF7B7F9801B0228F5D903201DE154
:1010A800134AD2F8903043F00103C2F89030CCE7ED
:1010B8000F4BD3F8902042F00402C3F89020D3F8E5
:1010C800902042F00102C3F89020BEE7FFF79AF99A
:1010D8000646074BD3F8903013F0020F0ED0FFF7F7
:1010E80091F9801B41F288339842F2D90320F5E048
:1010F800001002400800002000700040E5B9236895
:1011080013F0200F35D0A369E3B1774AD2F89830AD
:1011180043F00103C2F89830FFF774F90546724BA3
:10112800D3F8983013F0020F23D1FFF76BF9401B67
:101138000228F4D90320D1E06B4A936D23F0805341
:101148009365DCE7684AD2F8983023F00103C2F8C7
:101158009830FFF757F90546634BD3F8983013F0EA
:10116800020F06D0FFF74EF9401B0228F4D90320DE
:10117800B4E0E369002B00F0B0805B4A926802F0AB
:101188000C020C2A69D0022B1DD0574B1A6822F08A
:1011980080721A60DA6822F00302DA60DA6822F0F4
:1011A800887222F48032DA60FFF72CF904464E4B3D
:1011B8001B6813F0007F4ED0FFF724F9001B0228AC
:1011C800F5D903208AE0484A136823F08073136036
:1011D800FFF718F90546444B1B6813F0007F06D04B
:1011E800FFF710F9401B0228F5D9032076E03E4AA4
:1011F800D3683E491940236A606A013843EA0013FC
:10120800A06A43EA0023206B4008013843EA4053B0
:10121800606B4008013843EA4063E06A43EAC06310
:101228000B43D360136843F080731360D36843F0B3
:101238008073D360FFF7E6F804462B4B1B6813F066
:10124800007F06D1FFF7DEF8001B0228F5D903203E
:1012580044E0002042E0002040E0012B40D0224B37
:10126800DB6803F00301226A914201D0012035E0D6
:1012780003F0F002616A0139B2EB011F01D00120CD
:101288002CE003F4FE42A16AB2EB012F01D0012049
:1012980024E003F07842E16AB2EBC16F01D001208B
:1012A8001CE003F4C001226B5208013AB1EB425F23
:1012B80001D0012012E003F0C063626B5208013ACA
:1012C800B3EB426F0ED0012008E0012070470120E7
:1012D80004E0012002E0012000E0002002B070BD1F
:1012E8000120FBE70020F9E7001002400C809F0175
:1012F8001E4B9B6803F00C03042B33D01B4B9B68DD
:1013080003F00C03082B2FD0184B9B6803F00C0339
:101318000C2B01D000207047144BDA6802F003024E
:10132800DB68C3F303130133032A11D11048B0FB60
:10133800F3F30E4AD068C0F3062000FB03F00B4B12
:10134800DB68C3F3416301335B00B0FBF3F0704724
:101358000848B0FBF3F3054AD068C0F3062000FB49
:1013680003F0ECE70348704701487047001002405B
:1013780000127A000024F400002800F0EA80F8B592
:101388000446764B1B6803F00F038B420CD2734A5A
:10139800136823F00F030B431360136803F00F0364
:1013A8008B4201D00120B3E00D46236813F0010FF2
:1013B80061D06368032B15D0022B33D0684B1B68B0
:1013C80013F4806F00F0C780FFF792FF654B9842D7
:1013D80035D9634A936823F0F00343F080039360A0
:1013E80080272DE05E4B1B6813F0007F01D10120A0
:1013F8008EE0FFF777FC5B4B98421AD9584B9B68F5
:1014080013F0F00F05D0236813F0020F13D0A36870
:101418009BB9534A936823F0F00343F08003936029
:1014280080270DE04E4B1B6813F4003FCCD1012000
:101438006EE0002704E0002702E0002700E0002714
:10144800474A936823F0030361680B439360FEF7F0
:10145800D9FF0646424B9B6803F00C036268B3EB66
:10146800820F09D0FEF7CEFF801B41F288339842E5
:10147800F0D903204CE00027236813F0020F48D06E
:1014880013F0040F04D0364A936843F4E063936082
:10149800236813F0080F06D0314A936823F47C536D
:1014A80043F4E06393602E4A936823F0F003A16845
:1014B8000B439360294B1B6803F00F03AB4230D8F2
:1014C800236813F0040F06D0254A936823F4E063D9
:1014D800E1680B439360236813F0080F07D0204A94
:1014E800936823F46053216943EAC1039360FFF7CB
:1014F800FFFE1B4B9B68C3F303131B4AD35C03F02B
:101508001F03D840194B1860194B186800F052FA9D
:10151800F8BD002FCED0124A936823F0F0039360F1
:10152800C8E70E4A136823F00F032B431360FEF736
:1015380069FF0646094B1B6803F00F03AB42BFD097
:10154800FEF760FF801B41F288339842F2D90320EE
:10155800DEE7012070470120DAE700BF00200240E3
:101568000010024000B4C404746A0008000000209F
:1015780008000020014B1868704700BF00000020D9
:1015880008B5FFF7F7FF054B9B68C3F30223044A2E
:10159800D35C03F01F03D84008BD00BF0010024011
:1015A800846A00080F2303600B4B9A6802F0030259
:1015B80042609A6802F0F00282609A6802F4E0627F
:1015C800C2609B68DB0803F4E0630361034B1B689C
:1015D80003F00F030B607047001002400020024028
:1015E8007047000090F83D30DBB2012B01D001209C
:1015F8007047022380F83D300268D36843F0010346
:10160800D3600368164A934218D0B3F1804F15D0BF
:10161800A2F59432934211D002F5806293420DD024
:1016280002F59632934209D002F54062934205D002
:101638001A6842F001021A60002070479968094A46
:101648000A40062A08D0B2F5803F07D01A6842F04F
:1016580001021A6000207047002070470020704780
:10166800002C014007000100704770477047704721
:1016780010B5044603681A6912F0020F12D0DA682E
:1016880012F0020F0ED06FF002021A6101230377E5
:1016980003689B6913F0030F00F09F80FFF7E5FFD5
:1016A8000023237723681A6912F0040F13D0DA682D
:1016B80012F0040F0FD06FF004021A61022323778F
:1016C80023689B6913F4407F00F08D802046FFF764
:1016D800CCFF0023237723681A6912F0080F12D071
:1016E800DA6812F0080F0ED06FF008021A610423AE
:1016F80023772368DB6913F0030F7BD02046FFF7BD
:10170800B4FF0023237723681A6912F0100F12D050
:10171800DA6812F0100F0ED06FF010021A61082369
:1017280023772368DB6913F4407F6AD02046FFF7EC
:101738009CFF0023237723681A6912F0010F03D056
:10174800DA6812F0010F63D123681A6912F0800F6A
:1017580003D0DA6812F0800F61D123681A6912F495
:10176800807F03D0DA6812F0800F5FD123681A698E
:1017780012F0400F03D0DA6812F0400F5DD12368F1
:101788001A6912F0200F03D0DA6812F0200F5BD12B
:1017980023681A6912F4801F03D0DA6812F4801FD4
:1017A80059D123681A6912F4001F03D0DA6812F4B9
:1017B800001F57D123681A6912F4800F03D0DA6822
:1017C80012F4800F55D123681A6912F4000F03D060
:1017D800DA6812F4000F53D110BDFFF745FF204619
:1017E800FFF744FF5CE72046FFF73EFF2046FFF780
:1017F8003DFF6EE72046FFF737FF2046FFF736FF2D
:101808007FE72046FFF730FF2046FFF72FFF90E7DE
:101818006FF001021A61204600F020F994E76FF09A
:1018280080021A61204600F0BFF896E76FF48072D4
:101838001A61204600F0B9F898E76FF040021A6183
:101848002046FFF714FF9AE76FF020021A6120463E
:1018580000F0A9F89CE76FF480121A61204600F0A6
:10186800A5F89EE76FF400121A61204600F09FF871
:10187800A0E76FF480021A61204600F099F8A2E709
:101888006FF400021A61204600F093F8A4E7000004
:1018980003682C4A90420ED0B0F1804F0BD0A2F5CD
:1018A8009432904207D002F58062904203D002F54C
:1018B8009632904203D123F070034A681343214AB9
:1018C80090421AD0B0F1804F17D0A2F594329042CE
:1018D80013D002F5806290420FD002F59632904202
:1018E8000BD002F54062904207D002F58062904228
:1018F80003D002F58062904203D123F44073CA6892
:10190800134323F080034A69134303608B68C3625F
:101918000B6883620B4B98420FD003F50063984223
:101928000BD003F54063984207D003F580639842D3
:1019380003D003F58063984201D10B690363012347
:1019480043617047002C014058B310B5044690F825
:101958003D300BB3022384F83D30211D2068FFF78A
:1019680097FF012384F8483084F83E3084F83F30EC
:1019780084F8403084F8413084F8423084F84330A9
:1019880084F8443084F8453084F8463084F8473089
:1019980084F83D30002010BD80F83C30FFF720FE71
:1019A800D8E7012070477047704770477047704705
:1019B8007047704730B589B004460022014636208A
:1019C800FEF74CFD3620FEF77DFD1F4B9A6D42F069
:1019D80010029A659B6D03F010030193019B02A905
:1019E80003A8FFF7DFFD069BBBB9FFF7C9FD174B3F
:1019F800A3FB00239B0C013B1548164A026040F2EA
:101A0800E732C2604360002303618360FFF79CFFF5
:101A1800054630B1284609B030BDFFF7B1FD40009A
:101A2800E5E70B48FFF7DEFD05460028F2D10F2C4D
:101A380001D90125EEE7002221463620FEF70EFDEA
:101A4800054B1C60E6E700BF0010024083DE1B4325
:101A58005C010020001000400800002008B5FEF7D7
:101A6800C5FC08BD08B50248FFF702FE08BD00BF67
:101A78005C010020044B9B68C3F30313034AD35C47
:101A880003F01F03D840704700100240746A000832
:101A9800044B9B68C3F30223034AD35C03F01F0380
:101AA800D840704700100240846A0008044B9B68C5
:101AB800C3F3C223034AD35C03F01F03D840704723
:101AC80000100240846A00080E4BDB6803F0030331
:101AD800032B01D00C4B00E00C4B0A4AD068C0F332
:101AE800062000FB03F0D368C3F303130133B0FBF4
:101AF800F3F0D368C3F3416301335B00B0FBF3F049
:101B0800704700BF001002400024F40000127A0061
:101B180008B5074B9B6803F00C03082B06D00C2B69
:101B280001D0044808BDFFF7CFFFFBE70248F9E7FB
:101B3800001002400024F40000127A0008B50328BF
:101B480005D00C282DD0302853D0002008BD434B99
:101B5800D3F88830034043EA0040414B98420FD005
:101B6800B0F1031F15D0013B984206D0FFF7D0FF14
:101B7800FFF780FFFFF79AFFE8E7FFF7C9FFE5E700
:101B8800364B1B6813F4806F01D10020DEE735481F
:101B9800DCE7324BD3F8903013F0020F51D100201C
:101BA800D4E72E4BD3F88830034043EA00402E4B4D
:101BB80098420FD0B0F10C1F13D0043B984206D0C6
:101BC800FFF7A6FFFFF756FFFFF762FFBEE7FFF735
:101BD8009FFFBBE7214B1B6813F4806F34D10020B3
:101BE800B4E71E4BD3F8903013F0020F2ED100202B
:101BF800ACE71A4BD3F88830034043EA00401B4B4C
:101C080098420FD0B0F1301F13D0103B984206D045
:101C1800FFF77EFFFFF72EFFFFF73AFF96E7FFF784
:101C280077FF93E70D4B1B6813F4806F11D10020E9
:101C38008CE70A4BD3F8903013F0020F0BD1002039
:101C480084E74FF4004081E706487FE74FF40040FF
:101C58007CE704487AE74FF4004077E70010024039
:101C6800020003000024F40008000C0020003000EB
:101C7800C02801D00020704708B5164BD3F888302B
:101C8800034043EA0040144B98420FD0B0F1C01F04
:101C980015D0403B984206D0FFF73AFFFFF7EAFE1F
:101CA800FFF7F6FE01E0FFF733FF08BD094B1B689D
:101CB80013F4806F01D10020F7E70848F5E7054BDA
:101CC800D3F8903013F0020F01D10020EDE74FF464
:101CD8000040EAE7001002408000C0000024F40041
:101CE80003682C4A90420ED0B0F1804F0BD0A2F579
:101CF8009432904207D002F58062904203D002F5F8
:101D08009632904203D123F070034A681343214A64
:101D180090421AD0B0F1804F17D0A2F59432904279
:101D280013D002F5806290420FD002F596329042AD
:101D38000BD002F54062904207D002F580629042D3
:101D480003D002F58062904203D123F44073CA683D
:101D5800134303608B68C3620B8883620D4B984200
:101D68000FD003F5006398420BD003F54063984207
:101D780007D003F58063984203D003F58063984247
:101D880001D10B690363436943F0010343610020F8
:101D9800704700BF002C014038B5036813F0010FED
:101DA80072D10D4604460368384A1A408B6809699F
:101DB8000B4369690B43E9690B4313430360EB6801
:101DC800426822F4405213434360AB69826822F4AC
:101DD8004072134383602E4B984210D02D4B98428B
:101DE80016D02D4B984217D02C4B984218D0012072
:101DF800E26A22F00F022B881343E36238BD032006
:101E0800FFF79CFE002839D06A686AB90120EFE71D
:101E18000C20FFF793FEF5E73020FFF78FFEF1E780
:101E2800C020FFF725FFEDE72B68E9690B2B27D8C2
:101E380042B3B1F5004F0DD0DBB2194951F8233048
:101E4800B0FBF3F303EB5203B3FBF2F39BB2E36093
:101E58000020CDE7DBB2124951F82330B0FBF3F094
:101E6800530803EB4000B0FBF2F34FF6F0721A4050
:101E7800C3F342031343E3600020B9E70120B7E747
:101E88000020B5E70020B3E70120B7E7F369FFEFCB
:101E9800003801400044004000480040004C004029
:101EA8008C6A0008014B1870704700BF580000206A
:101EB80008B504F0EDFC08BD08B504F0D1FC08BD78
:101EC80008B5024804F0D2FC08BD00BF00C80008ED
:101ED80008B504F003FD03F03DF908BD00B5A3B053
:101EE8000C238DF804309DF80230062262F30303B8
:101EF8008DF80230BDF80030012262F30F13ADF8FF
:101F0800003000238DF805208DF806308DF8070085
:101F18006946184603F0DEFB23B05DF804FB00B504
:101F2800A3B00C238DF804309DF80230062262F32A
:101F380003038DF80230BDF80030012262F30F135D
:101F4800ADF80030002302228DF805208DF8063008
:101F58008DF807008DF808106946184603F0BAFB9B
:101F680023B05DF804FB10B403780C78240284EAEB
:101F78000324120292B2002302E00133DBB20446CA
:101F8800072B06D8600080B214F4004FF5D05040FB
:101F9800F3E7C4F307240C705DF8044B70470000A6
:101FA800F0B583B000258DF807508DF80650124E15
:101FB80016E00134E4B2032C11D8104B5B68AB4235
:101FC800F7D9E30027FA03F38DF8063007220DEB63
:101FD80002010DF10600FFF7C6FF0135E9E70436F7
:101FE800064B5B68AB4202D937680024E3E79DF8EB
:101FF800070003B0F0BD00BF00C80008580000206B
:102008002DE9F041614B1B78052B09D8DFE803F077
:10201800030AB43545A4FFF75BFF0120FFF742FF31
:10202800BDE8F081594B1B7A022B1CD0574B1B7A09
:10203800032BF5D1554BDA685A60554B19884FF682
:10204800FF73994213D0524B1B68524901EA83210E
:10205800514B0B449A420CD21020FFF73FFF03204C
:10206800FFF720FFDCE70220FFF71CFFDEE74B4B02
:10207800F0E72020FFF732FFD2E7444B1B7A042B0E
:10208800CED1424B9988464804F030FC1220FFF725
:1020980025FF0420FFF706FFC2E73C4B1B7A052B00
:1020A80011D03A4B1B7A062BBAD13E4A4FF4006145
:1020B8003D4B586804F032FC1420FFF70FFF052051
:1020C800FFF7F0FEACE7314B00221A72364A15884A
:1020D800B3F88C40A5422ED22C4EB6F88E00314F64
:1020E80006F10C082A464146384404F09FFC2E4D60
:1020F8003A464FF40061686804F010FC6B6803F519
:1021080000636B604FF40062FF21384604F099FCCD
:102118002988B6F88C40641A22464144384604F0AF
:1021280085FCA4B2A6F88E40C4F500642C80132068
:10213800FFF7D4FEB5E71F46B3F88E60224603F1D9
:102148000C011848304404F071FC2644A7F88E604E
:102158002C1B154B1C80EAE70C4B1B7A072B7FF4D2
:102168005FAFFFF71DFF022201461520FFF7D7FEDC
:102178000120FFF797FE53E7012004F08FFB4FF48F
:102188007A7004F001FC04F0E1FB49E758000020F4
:10219800E075FF1F00FCFF03FF37FFF7FF3701F86B
:1021A80000C80008A80100202C00002008B5FFF78F
:1021B8007FFE012804D003F0EFFDFFF721FFFAE7C7
:1021C800FFF77AFEFFF77CFE08BD000008B5C3796B
:1021D8000B4A1372023B052B11D8DFE803F0030307
:1021E80010030303B0F80520013A92B2044BA3F898
:1021F8008C2000F1080103F10C0004F017FC08BD65
:102208005800002038B50546144B154A1360154A86
:1022180013600933144A13600024144B1C802822CD
:102228002146134804F00DFC124B1C805022214615
:10223800114804F006FC114B1C80A02221461048CE
:1022480004F0FFFB0F4B1C605C604FF0FF329A609C
:102258000D4B1C700DB10B4BDD6038BDD009002053
:10226800680C0020680B00206C0B0020C00B0020BD
:10227800A8090020C20B0020700B0020C40B00200E
:10228800C80B0020E8000020650B0020012804D0BE
:10229800184B1A68184B1A607047164B1A680231A7
:1022A800531807331548834208D9154B1A60A0F50F
:1022B800CA73104A136007330F4A13600D4B1B682B
:1022C800194407310F4A11600D4A52689A420CD3DB
:1022D8008A420AD80A4B00225A60DA681379FF2B1F
:1022E80003D0013313716423D370074B01221A7092
:1022F800704700BF680C0020680B0020640B0020AA
:10230800E80000206C0B0020650B0020034B1A68C6
:1023180010701A6801321A60704700BF680B0020FD
:10232800014B00225A607047E80000202DE9F04177
:1023380005460E46AC4B1B889BB20A2B30D00020BA
:1023480003F040FFA84B1B889BB2092B00F2878142
:10235800A54A118889B2A54B43F83160118803EB6F
:10236800C1035D6013889BB2002B00F07E819E4CF8
:10237800238801339BB22380012003F023FF2288A6
:10238800642303FB02F39A4AA2FB0323C3F3C703A4
:10239800984AD2685178994200D25370BDE8F081CA
:1023A800914B1B889BB223B18F4B1B889BB20A2B86
:1023B80004D94FF42171904803F04DFD002411E039
:1023C800002003F0FFFE671C884B03EBC40103EBFE
:1023D800C7021068526843F834004A60012003F0CD
:1023E800F1FEBCB2804B1B889BB29C42E8D3002014
:1023F80003F0E8FE7C4B1B889BB2FBB17A4803884C
:10240800013B9BB20380028892B2784B13F83210DA
:10241800002103F8321003EBC2025478517094780B
:102428009170D478D170028803EBC2031A791971BC
:102438005A7959719A799971DA79D971012003F029
:10244800C1FE6C4B4FF0FF329A606C4B1C68002C3D
:1024580030D06B4B9C4203D303F295139C4204D3B8
:1024680040F20911644803F0F6FC664B1B689C4275
:1024780040F29280002003F0A5FE624B1B68A4EB9B
:102488000308012003F09EFE5A4B9A685D4B1B68B7
:102498009A4240F28E80002003F094FE554B9F68CC
:1024A800584B1B68FF1A012003F08CFEB84501D277
:1024B800504B9C604D4B1C68002C2FD0504B9C42BD
:1024C80003D303F295139C4204D340F209114A48FE
:1024D80003F0C1FC4B4B1B689C4278D9002003F0E9
:1024E80071FE484B1B68A4EB0308012003F06AFE49
:1024F800404B9A68434B1B689A4240F28780002001
:1025080003F060FE3B4B9F683E4B1B68FF1A01209F
:1025180003F058FEB84501D2364B9C603A4B1C6814
:10252800002C2ED0364B9C4203D303F295139C42C9
:1025380004D340F20911304803F08DFC314B1B687D
:102548009C4271D9002003F03DFE2E4B1B68A4EB82
:102558000308012003F036FE264B9A68294B1B68B6
:102568009A426ED9002003F02DFE224B9F68254B1E
:102578001B68FF1A012003F025FEB84501D21D4B48
:102588009C601C4BDA681379FF2B3FF4D8AE0133FB
:10259800137164235370D2E6002003F013FE194B25
:1025A8001B68A4EB030808F29518012003F00AFE43
:1025B8006AE7002003F006FE0E4B9F68114B1B686C
:1025C800FF1A07F29517012003F0FCFD6EE70020C3
:1025D80003F0F8FD0B4B1B68A4EB030808F29518F1
:1025E800012003F0EFFD83E7C20B0020700B0020F1
:1025F800CDCCCCCCE8000020CC6A0008A80900208B
:10260800D0090020680C0020C80B0020002003F02F
:10261800D9FD3D4B9F683D4B1B68FF1A07F2951784
:10262800012003F0CFFD75E7002003F0CBFD374B09
:102638001B68A4EB030808F29518012003F0C2FDFB
:102648008AE7002003F0BEFD2F4B9F682F4B1B68C5
:10265800FF1A07F29517012003F0B4FD8DE740F249
:10266800AA212B4803F0F7FB72E62A4B1C68002CC2
:102678003FF47DAE284B9C4203D303F295139C4252
:1026880004D340F20911224803F0E5FB1F4B1B68F5
:102698009C421FD9002003F095FD1C4B1E68A61B09
:1026A800012003F08FFD184B9A68184B1B689A425B
:1026B8001CD9002003F086FD134B9D68134B1B6843
:1026C800ED1A012003F07EFDAE42BFF450AE0E4B72
:1026D8009C604CE6002003F075FD0C4B1E68A61BA1
:1026E80006F29516012003F06DFDDCE7002003F0EB
:1026F80069FD054B9D68054B1B68ED1A05F295159C
:10270800012003F05FFDDFE7E8000020680C0020EF
:10271800CC6A0008700B0020D0090020064B1B88EB
:102728009BB2834206D9054B53F830301B790B70A6
:1027380000207047FF207047C20B0020700B00205C
:10274800074B1B889BB2834207D9064B53F830309E
:10275800B3F805300B8000207047FF20704700BF9A
:10276800C20B0020700B00202DE9F0410646002422
:10277800AA4B1B889BB2A34240F24D81A84B53F849
:102788003430B34202D00134A4B2F1E7A34B1B8822
:102798009BB29C4204D2A14B1B889BB20A2B04D942
:1027A8004FF421719F4803F056FB254611E00020A5
:1027B80003F008FD6F1C9A4B03EBC50103EBC7023E
:1027C8001068526843F835004A60012003F0FAFCAB
:1027D800BDB2924B1B889BB29D42E8D3002003F008
:1027E800F1FC8E4B1B889BB2FBB18C480388013BE4
:1027F8009BB20380028892B2894B13F832100021F1
:1028080003F8321003EBC202557851709578917035
:10281800D578D170028803EBC2031A7919715A79F5
:1028280059719A799971DA79D971012003F0CAFC42
:102838007D4B4FF0FF329A607C4B1D68002D30D0E5
:102848007B4B9D4203D303F295139D4204D340F280
:102858000911744803F0FFFA764B1B689D4240F259
:102868008980002003F0AEFC724B1B68A5EB0308BF
:10287800012003F0A7FC6C4B9A686E4B1B689A42C8
:1028880040F28580002003F09DFC674B9F68694BF0
:102898001B68FF1A012003F095FCB84501D2624B72
:1028A8009D605F4B1D68002D2ED0614B9D4203D368
:1028B80003F295139D4204D340F20911594803F0DD
:1028C800CAFA5C4B1B689D426FD9002003F07AFC62
:1028D800584B1B68A5EB0308012003F073FC524B0F
:1028E8009A68544B1B689A426CD9002003F06AFC22
:1028F8004D4B9F684F4B1B68FF1A012003F062FC89
:10290800B84501D2484B9D604B4B1D68002D3FF4E4
:102918002FAF474B9D4203D303F295139D4204D337
:1029280040F209113F4803F096FA424B1B689D425A
:1029380056D9002003F046FC3E4B1B68A5EB030864
:10294800012003F03FFC384B9A683A4B1B689A42C7
:1029580053D9002003F036FC334B9F68354B1B6876
:10296800FF1A012003F02EFCB845BFF401AF2E4B2F
:102978009D60FDE6002003F025FC2E4B1B68A5EBAF
:10298800030808F29518012003F01CFC73E70020E7
:1029980003F018FC244B9F68264B1B68FF1A07F2AC
:1029A8009517012003F00EFC77E7002003F00AFCDE
:1029B800204B1B68A5EB030808F29518012003F0CB
:1029C80001FC8CE7002003F0FDFB174B9F68194BB7
:1029D8001B68FF1A07F29517012003F0F3FB8FE736
:1029E800002003F0EFFB134B1B68A5EB030808F26C
:1029F8009518012003F0E6FBA5E7002003F0E2FBB1
:102A0800094B9F680B4B1B68FF1A07F295170120AB
:102A180003F0D8FBA8E7BDE8F08100BFC20B002097
:102A2800700B0020CC6A0008E8000020A8090020EC
:102A3800D0090020680C0020C80B00202DE9F04FB9
:102A480085B001900F4602921C469DF838909DF87B
:102A58003CA09E4B1A881B889BB2092B09D841B110
:102A68009B4B1B689B4A934203D2A2F29512934256
:102A780004D240F25131984803F0EDF9934B1B888A
:102A88009BB2082B00F2A181002003F09BFB934B23
:102A98001A688F4B1D68A2EB05081FFA88F3039389
:102AA8008F4B1B685B1B2A198E498A4240F2AB8008
:102AB8009BB2A1F5CA72E11888188B4949688A4205
:102AC80040F2BE80884989688A4202D8884280F0EC
:102AD800BA8022447E490A6012FA88F07F49086069
:102AE80013447F4A1360814E794BD3F800B0039B9F
:102AF800062B40F2E1802B68CBF80030AA88AB792E
:102B0800ABF804208BF80630012003F05BFB1FFABA
:102B180088F2073AE91D0BF1070003F087FF3A88AE
:102B2800BB783280B370002003F04CFB674A1188F1
:102B38006F4B03EB01118C80118809015E501188DD
:102B480003EB011101988860118803EB011383F8E6
:102B58000C9013889BB2002B00F0D0805B4A13883E
:102B680001339BB2138013889BB2092B00F21981A1
:102B7800012003F027FBBAF1000F00F01881A21F13
:102B8800F91CF01C03F052FFE31E029AF254A31E34
:102B98004FEA122806F80380013C06F804A0B9F1B0
:102BA800000F00F01681534B1B889BB2524A52F813
:102BB800233023B140F2D731474803F04CF94D4B4D
:102BC8001B889BB26BB14C4B1B68484A934203D39A
:102BD80002F29512934204D34FF476713E4803F003
:102BE8003AF9002003F0EEFA424A13889BB24249B0
:102BF80041F82360138801339BB21380012003F04E
:102C0800E1FA0020E2E09BB2D018884220D8364B87
:102C18005B689D4242D9344B9B689D4201D89842DB
:102C28003ED22B4B1A602E4B1860294B1B6813FAA7
:102C380088F32A4A1360274A934236D22E4653E72E
:102C48008842FFF43FAF012003F0BCFAFF20BDE04B
:102C5800254949688D4201D88A4213D222488068A2
:102C6800854201D882420DD2204A13448A420ED9A5
:102C7800824201D883420CD2154A1C491160184A75
:102C88001360D2E7012003F09DFAFF209EE08B42FB
:102C9800EED3012003F096FAFF2097E09842BAD3CA
:102CA800012003F08FFAFF2090E040F299310A48A2
:102CB80003F0D1F82E4617E71FFA88F2294658463E
:102CC80003F0B4FE012003F07DFA28E7C40B0020CE
:102CD800680C0020650B0020CC6A0008680B0020F7
:102CE8006C0B0020640B0020E8000020D0090020B5
:102CF800C80B0020C00B0020A8090020364B1D6817
:102D0800002D3FF42BAF354B9D4203D303F29513AF
:102D18009D4204D340F20911314803F09CF8314B2D
:102D28001B689D4221D9002003F04CFA2D4B1B68EB
:102D3800EB1A9846012003F045FA2B4B9A68294B69
:102D48001B689A421ED9002003F03CFA264B9A6869
:102D5800244B1B68A2EB030B012003F033FAD84580
:102D6800BFF4FCAE204B9D60F8E6002003F02AFA81
:102D78001C4B1B68EB1A03F295139846012003F0CD
:102D880021FADAE7002003F01DFA174B9B68154A71
:102D98001268A3EB020B0BF2951B012003F012FA49
:102DA800DDE74FF470710E4803F055F8E0E6621F56
:102DB800F91CF01C03F03AFEA31E029AF254013CDF
:102DC8004FEA122806F80480E9E6FF2005B0BDE8BE
:102DD800F08F0020FAE700BFC80B0020D0090020C0
:102DE800CC6A0008680C0020E800002070B5934BFE
:102DF8001B889BB223B1914B1B889BB20A2B04D929
:102E080040F2E6318E4803F026F8002411E0002055
:102E180003F0D8F9651C8B4B2A019918985824019E
:102E28001A1918518B889BB29380012003F0CAF9B4
:102E38002C46824B1B889BB2A342E8DC002003F09F
:102E4800C1F97E4B1B889BB26BB17C4A1388013B4E
:102E58009BB2138011887B4B0901002058501288BF
:102E680003EB02139880012003F0ACF9764B4FF086
:102E7800FF329A60754B1C6874B3754B9C4203D340
:102E880003F295139C4204D340F209116C4802F0F6
:102E9800E2FF704B1B689C4240F28180002003F0E7
:102EA80091F96C4B1E68A61B012003F08BF9664B49
:102EB8009A68684B1B689A427DD9002003F082F912
:102EC800614B9D68634B1B68ED1A012003F07AF98A
:102ED800AE4201D25C4B9C605F4B1C686CB35C4B90
:102EE8009C4203D303F295139C4204D340F2091188
:102EF800534802F0B0FF574B1B689C4269D9002029
:102F080003F060F9534B1E68A61B012003F05AF921
:102F18004D4B9A684F4B1B689A4266D9002003F0C4
:102F280051F9494B9D684B4B1B68ED1A012003F082
:102F380049F9AE4201D2444B9C60424B1C686CB3C9
:102F4800434B9C4203D303F295139C4204D340F2B3
:102F580009113B4802F07FFF3E4B1B689C4252D947
:102F6800002003F02FF93B4B1E68A61B012003F03D
:102F780029F9354B9A68374B1B689A424FD900207C
:102F880003F020F9304B9D68324B1B68ED1A012085
:102F980003F018F9AE4201D22B4B9C6070BD0020A3
:102FA80003F010F92B4B1E68A61B06F2951601209C
:102FB80003F008F97BE7002003F004F9224B9D6831
:102FC800244B1B68ED1A05F29515012003F0FAF859
:102FD8007EE7002003F0F6F81E4B1E68A61B06F2DB
:102FE8009516012003F0EEF892E7002003F0EAF8C6
:102FF800154B9D68174B1B68ED1A05F295150120B6
:1030080003F0E0F895E7002003F0DCF8114B1E68A8
:10301800A61B06F29516012003F0D4F8A9E70020B4
:1030280003F0D0F8084B9D680A4B1B68ED1A05F2AF
:103038009515012003F0C6F8ACE700BFC40B0020CB
:10304800CC6A0008C80B0020E8000020A80900206E
:10305800D0090020680C0020700B0020B24B994268
:1030680000F2F4822DE9F041B04B5B6806468342DA
:103078000CD38B420AD8AD4B00225A60DA68137918
:10308800FF2B03D0013313716423D370A74B9B68C4
:10309800984200F2DD828B4200F2DD820D46A34B9E
:1030A800DB686422DA70E9E0002003F08BF8671C23
:1030B8009F4B03EBC40103EBC7021068526843F847
:1030C80034004A60012003F07DF8BCB2994B1B889C
:1030D8009BB29C42E8D3002003F074F8954B1B8800
:1030E8009BB2FBB193480388013B9BB203800288E3
:1030F80092B28F4B13F83210002103F8321003EB11
:10310800C2025478517094789170D478D170028842
:1031180003EBC2031A7919715A7959719A7999711D
:10312800DA79D971012003F04DF8804B4FF0FF3266
:103138009A60814B1C68002C30D0804B9C4203D392
:1031480003F295139C4204D340F209117C4802F023
:1031580082FE7C4B1B689C4240F2B080002003F04A
:1031680031F8784B1B68A4EB0308012003F02AF818
:103178006E4B9A68734B1B689A4240F2AC800020F1
:1031880003F020F8694B9F686E4B1B68FF1A0120FB
:1031980003F018F8B84501D2644B9C60644B1C6876
:1031A800002C30D0654B9C4203D303F295139C420C
:1031B80004D340F20911624802F04DFE614B1B68CE
:1031C8009C4240F29680002002F0FCFF5D4B1B6899
:1031D800A4EB0308012002F0F5FF544B9A68594B01
:1031E8001B689A4240F29280002002F0EBFF4F4B9E
:1031F8009F68544B1B68FF1A012002F0E3FFB84593
:1032080001D24A4B9C60504B1C68002C30D04B4B71
:103218009C4203D303F295139C4204D340F2091154
:10322800474802F018FE474B1B689C4240F28E80CC
:10323800002002F0C7FF434B1B68A4EB03080120E2
:1032480002F0C0FF394B9A683E4B1B689A4240F225
:103258008A80002002F0B6FF344B9F68394B1B6808
:10326800FF1A012002F0AEFFB84501D22F4B9C6037
:103278002E4BDA681379FF2B40F083802C4B1B68A8
:103288009E4200F248812A4B1B68AB4200F2438100
:10329800284B1B889BB2002B00F03D81254B1B88D7
:1032A8009BB223B1234B1B889BB20A2B04D94FF442
:1032B8002171234802F0CFFD002407E7002002F027
:1032C80081FF204B1B68A4EB030808F29518012026
:1032D80002F078FF4CE7002002F074FF134B9F6860
:1032E800184B1B68FF1A07F29517012002F06AFFB6
:1032F80050E7002002F066FF124B1B68A4EB03089E
:1033080008F29518012002F05DFF66E7002002F040
:1033180059FF064B9F680B4B1B68FF1A07F295175E
:10332800012002F04FFF6AE7640B0020E80000204C
:10333800700B0020C20B0020A8090020D009002033
:10334800CC6A0008680C0020C80B0020002002F09E
:1033580039FFA94B1B68A4EB030808F29518012054
:1033680002F030FF6EE7002002F02CFFA34B9F68AD
:10337800A14B1B68FF1A07F29517012002F022FFE4
:1033880072E7013313716423D37077E7012002F0E9
:1033980019FF002002F016FF631C994A52F8231007
:1033A80042F824109CB2974B1B889BB29C42EDD3E9
:1033B800944A1388013B9BB2138013889BB2904CAC
:1033C800002244F82320012002F0FCFE8B4B4FF032
:1033D800FF329A602468002C30D08B4B9C4203D378
:1033E80003F295139C4204D340F20911874802F076
:1033F80032FD814B1B689C4240F2A880002002F0FD
:10340800E1FE7D4B1B68A4EB0308012002F0DAFE05
:103418007A4B9A68784B1B689A4240F2A480002045
:1034280002F0D0FE754B9F68734B1B68FF1A012092
:1034380002F0C8FEB84501D2704B9C60744B1C6802
:10344800002C30D0704B9C4203D303F295139C425E
:1034580004D340F209116D4802F0FDFC664B1B686D
:103468009C4240F28E80002002F0ACFE624B1B684A
:10347800A4EB0308012002F0A5FE604B9A685E4B9E
:103488001B689A4240F28A80002002F09BFE5B4B48
:103498009F68594B1B68FF1A012002F093FEB8453C
:1034A80001D2564B9C605B4B1C68002C2ED0564BAF
:1034B8009C4203D303F295139C4204D340F20911B2
:1034C800524802F0C8FC4C4B1B689C4274D900203F
:1034D80002F078FE484B1B68A4EB0308012002F0B9
:1034E80071FE464B9A68444B1B689A4271D900207A
:1034F80002F068FE414B9F683F4B1B68FF1A012092
:1035080002F060FEB84501D23C4B9C603B4BDA6848
:103518001379FF2B6BD13A4B1B689E427CD8AB4288
:103528007AD8384B1B889BB2002B75D0354B1B883B
:103538009BB20A2B03D8334B1B889BB223B940F2AA
:103548004F21324802F087FC00242CE7002002F0CB
:1035580039FE294B1B68A4EB030808F295180120D3
:1035680002F030FE54E7002002F02CFE234B9F6847
:10357800214B1B68FF1A07F29517012002F022FE63
:1035880058E7002002F01EFE1B4B1B68A4EB030843
:1035980008F29518012002F015FE6EE7002002F0EF
:1035A80011FE164B9F68144B1B68FF1A07F29517FC
:1035B800012002F007FE72E7002002F003FE0E4B26
:1035C8001B68A4EB030808F29518012002F0FAFD25
:1035D80087E7002002F0F6FD084B9F68064B1B6842
:1035E800FF1A07F29517012002F0ECFD8AE7013374
:1035F80013716423D3708EE7680C0020E800002064
:10360800A8090020C00B0020D0090020CC6A0008BF
:10361800700B0020C80B0020124B1B689E421CD860
:10362800104B1B68AB421AD80F4B1B889BB25BB17F
:10363800FFF7DCFB0D4BDA681379FF2BECD0013375
:1036480013716423D370E7E7002002E0FF2070477E
:103658000020BDE8F0810020FBE70020F9E700200A
:10366800F7E700BFC80B0020C40B0020E8000020CB
:1036780010B5444B1A88642303FB02F3424AA2FBA9
:103688000323C3F3C703414AD2681178994200D291
:1036980013703F4B1A88642303FB02F33A4AA2FBD8
:1036A8000323C3F3C703394AD2689178994200D2F9
:1036B8009370002002F086FD344B9B68B3F1FF3F06
:1036C80045D0344A934203D302F29512934203D36E
:1036D800E921314802F0BFFB2C4B9B682F4A146844
:1036E800A3422DD91C1B012002F06CFD6FF0630270
:1036F80049F6346302FB0433294AA2FB0323C3F3CC
:10370800C713224AD268D178994200D2D3701F4B8E
:103718001B684BB11F4A1968116099889B79918081
:1037280093711A4B00221A60002002F04BFD1D4BCA
:103738001B78DBB2012B15D0012002F043FD10BD30
:103748001B1B03F29514012002F03CFDCEE7164B3B
:103758001B68124A14681B1B03F29514012002F01F
:1037680031FDC3E70F4B00221A700C4B19680E4B42
:103778001868FFF773FC0028DED0D921064802F04C
:103788006AFBD9E7C00B0020CDCCCCCCE8000020E8
:10379800C40B0020D0090020CC6A00086C0B002064
:1037A800C39CE850650B0020680C002008B5144B3A
:1037B8001B78DBB2012B0FD0124B1B68124A136027
:1037C8000933124A1360124A93420FD20D4B1A68FA
:1037D800104B9A4210D008BD094B00221A700A4BB0
:1037E8001968084B1868FFF739FCE5E740F26911DA
:1037F800094802F030FBE9E7084B00221A60EAE7C3
:10380800650B0020680C0020680B00206C0B002062
:10381800650B0020D0090020CC6A0008E8000020D1
:1038280070B5A24B1B78DBB2012B54D0A04B1B8880
:103838009BB20A2B59D09E4B1B889BB29D4A52F8CB
:10384800233023B14FF4DA719B4802F004FB984B04
:103858001B889BB26BB1974B1B68984A934203D362
:1038680002F29512934204D340F2B511924802F045
:10387800F2FA8F4A13889BB2914908688D4941F83A
:10388800230013889BB2002B00F06A81884A1388B2
:1038980001339BB213808B490A68931E0B6012F8A0
:1038A800022C12F0010F01D101330B60854B1B680C
:1038B8000933854A934203D9824BA2F5CA721A602A
:1038C800804B1B687E4A13600933804A1360774B2C
:1038D80001221A7070BD7B4B1968794B1868FFF785
:1038E800BDFB724B00221A70A0E7714B1B889BB27C
:1038F8000A2B03D86E4B1B889BB223B940F24F2189
:103908006D4802F0A8FA00240CE0012002F05AFCED
:10391800002002F057FC631C664A52F8231042F854
:1039280024109CB2624B1B889BB29C42EDD3604A28
:103938001388013B9BB2138013889BB25D4C002215
:1039480044F82320012002F03DFC614B4FF0FF3288
:103958009A6024687CB3594B9C4203D303F29513B5
:103968009C4204D340F20911534802F074FA544BB4
:103978001B689C4240F28E80002002F023FC504BD2
:103988001E68A61B012002F01DFC514B9A684C4B87
:103998001B689A4240F2A280002002F013FC4C4BB4
:1039A8009D68474B1B68ED1A012002F00BFCAE42E4
:1039B80001D2474B9C60474B1C687CB33F4B9C42F1
:1039C80003D303F295139C4204D340F209113A48F9
:1039D80002F041FA3A4B1B689C4240F28D8000206D
:1039E80002F0F0FB364B1E68A61B012002F0EAFB32
:1039F800374B9A68324B1B689A4240F28980002004
:103A080002F0E0FB324B9D682D4B1B68ED1A01203C
:103A180002F0D8FBAE4201D22D4B9C602E4B1C68A5
:103A28006CB3264B9C4203D303F295139C4204D3F8
:103A380040F20911204802F00EFA214B1B689C4203
:103A480074D9002002F0BEFB1D4B1E68A61B012086
:103A580002F0B8FB1E4B9A68194B1B689A4271D941
:103A6800002002F0AFFB1A4B9D68154B1B68ED1A3E
:103A7800012002F0A7FBAE4201D2154B9C60144B0B
:103A8800DA681379FF2B3FF4D6AE01331371642340
:103A98001370D0E6002002F095FB094B1E68A61BA8
:103AA80006F29516012002F08DFB6EE7650B0020EB
:103AB800C00B0020A8090020CC6A0008D00900200B
:103AC800680C0020680B0020640B00206C0B0020A1
:103AD800E8000020700B0020C80B0020002002F036
:103AE80071FB464B9D68464B1B68ED1A05F2951510
:103AF800012002F067FB5AE7002002F063FB404B0D
:103B08001E68A61B06F29516012002F05BFB6FE704
:103B1800002002F057FB394B9D68394B1B68ED1AA2
:103B280005F29515012002F04DFB73E7002002F025
:103B380049FB334B1E68A61B06F29516012002F0BE
:103B480041FB87E7002002F03DFB2C4B9D682C4B86
:103B58001B68ED1A05F29515012002F033FB8AE780
:103B68000C68002C3FF492AE264B9C4203D303F220
:103B780095139C4204D340F20911234802F06BF9D3
:103B88001F4B1B689C421FD9002002F01BFB1C4BDB
:103B98001E68A61B012002F015FB184B9A68184BEB
:103BA8001B689A421CD9002002F00CFB134B9D683D
:103BB800134B1B68ED1A012002F004FBAE42BFF460
:103BC80065AE0E4B9C6061E6002002F0FBFA0C4BE0
:103BD8001E68A61B06F29516012002F0F3FADCE730
:103BE800002002F0EFFA054B9D68054B1B68ED1AA3
:103BF80005F29515012002F0E5FADFE7E80000205C
:103C0800680C0020D0090020CC6A000838B50546A9
:103C18000C461B4B1B684BB11A4A196811609988EE
:103C28009B7991809371164B00221A60002002F054
:103C3800C9FA154B1B78DBB2012B0ED0012002F01C
:103C4800C1FA124B1B889BB2AB4216D9104800EB45
:103C5800C50043682360002038BD0B4B00221A7052
:103C68000C4B19680C4B1868FFF7F8F90028E5D0D9
:103C7800D9210A4802F0EFF8E0E7FF20ECE700BF9F
:103C8800E8000020D0090020650B0020C20B0020AE
:103C9800700B00206C0B0020680C0020CC6A000818
:103CA80070B504460D46AB4B1B684BB1AA4A196860
:103CB800116099889B7991809371A64B00221A60B4
:103CC800002002F07FFAA54B1B78DBB2012B1ED037
:103CD800012002F077FAA24B1B889BB2A34240F264
:103CE8006781A04B53F834302B609A4A53609C4B41
:103CF8001B889BB29C4204D2994B1B889BB20A2B0F
:103D080027D94FF42171984802F0A5F821E0934B88
:103D180000221A70954B1968954B1868FFF79EF9A1
:103D28000028D5D0D921904802F095F8D0E7002096
:103D380002F048FA651C8B4B03EBC40103EBC50288
:103D48001068526843F834004A60012002F03AFAD9
:103D5800ACB2834B1B889BB29C42E8D3002002F094
:103D680031FA7F4B1B889BB2FBB17D480388013B2E
:103D78009BB20380028892B27A4B13F8321000216A
:103D880003F8321003EBC2025478517094789170A2
:103D9800D478D170028803EBC2031A7919715A7961
:103DA80059719A799971DA79D971012002F00AFA70
:103DB800684B4FF0FF329A606E4B1C687CB3664BC1
:103DC8009C4203D303F295139C4204D340F2091199
:103DD800654802F040F8664B1B689C4240F28580BB
:103DE800002002F0EFF9624B1E68A61B012002F0CA
:103DF800E9F9584B9A685E4B1B689A4240F28180F9
:103E0800002002F0DFF9534B9D68594B1B68ED1AEF
:103E1800012002F0D7F9AE4201D24E4B9C60514BC3
:103E28001C686CB34C4B9C4203D303F295139C4221
:103E380004D340F209114C4802F00DF84C4B1B68B2
:103E48009C426CD9002002F0BDF9494B1E68A61BA4
:103E5800012002F0B7F93F4B9A68454B1B689A421C
:103E680069D9002002F0AEF93A4B9D68404B1B68B7
:103E7800ED1A012002F0A6F9AE4201D2354B9C6042
:103E88003D4B1C68002C00F09580334B9C4203D3BB
:103E980003F295139C4204D340F20911324801F011
:103EA800DAFF334B1B689C4268D9002002F08AF97C
:103EB8002F4B1E68A61B012002F084F9254B9A6837
:103EC8002B4B1B689A4265D9002002F07BF9214BE5
:103ED8009D68274B1B68ED1A012002F073F9AE426A
:103EE8006AD21C4B9C60002063E0002002F06AF953
:103EF8001F4B1E68A61B06F29516012002F062F9F8
:103F080077E7002002F05EF9124B9D68184B1B689A
:103F1800ED1A05F29515012002F054F97BE700200F
:103F280002F050F9124B1E68A61B06F295160120E6
:103F380002F048F98FE7002002F044F9054B9D682C
:103F48000B4B1B68ED1A05F29515012002F03AF9A2
:103F580092E700BFE8000020D0090020650B002090
:103F6800C20B0020700B0020CC6A00086C0B0020EC
:103F7800680C0020A8090020C80B0020002002F0CF
:103F880021F90E4B1E68A61B06F29516012002F0B9
:103F980019F993E7002002F015F9094B9D68074BC2
:103FA8001B68ED1A05F29515012002F00BF996E74A
:103FB800FF2070BD0020FCE70020FAE7680C002015
:103FC800E800002070B50446AD4B1B684BB1AD4A04
:103FD8001968116099889B7991809371A84B002288
:103FE8001A60002002F0EEF8A74B1B78DBB2012B19
:103FF80027D0012002F0E6F8A44B1B889BB2002BC7
:1040080000F03781A24B1B6823609E4A934203D37A
:1040180002F29512934204D340F269219D4801F0BF
:104028001AFF9A4B1B889BB20A2B03D8974B1B8805
:104038009BB223B940F24F21964801F00CFF0024AF
:104048001CE0914B00221A70934B1968934B186827
:10405800FFF704F80028CCD0D9218E4801F0FBFEE8
:10406800C7E7012002F0AEF8002002F0ABF8631CAD
:10407800874A52F8231042F824109CB2834B1B88BD
:104088009BB29C42EDD3814A1388013B9BB21380BB
:1040980013889BB27E4C002244F82320012002F0B2
:1040A80091F8774B4FF0FF329A60246874B3754BE0
:1040B8009C4203D303F295139C4204D340F20911A6
:1040C800744801F0C8FE754B1B689C4240F283801F
:1040D800002002F077F8714B1E68A61B012002F041
:1040E80071F8674B9A686D4B1B689A427FD900201C
:1040F80002F068F8624B9D68684B1B68ED1A012056
:1041080002F060F8AE4201D25D4B9C60644B1C68C3
:104118006CB35C4B9C4203D303F295139C4204D3CB
:1041280040F209115B4801F096FE5C4B1B689C420B
:104138006BD9002002F046F8584B1E68A61B0120D8
:1041480002F040F84E4B9A68544B1B689A4268D963
:10415800002002F037F84A4B9D68504B1B68ED1A57
:10416800012002F02FF8AE4201D2454B9C604D4B26
:104178001C68002C7FD0434B9C4203D303F2951359
:104188009C4204D340F20911424801F064FE434BBB
:104198001B689C4253D9002002F014F83F4B1E685C
:1041A800A61B012002F00EF8354B9A683B4B1B68A2
:1041B8009A4250D9002002F005F8314B9D68374BE0
:1041C8001B68ED1A012001F0FDFFAE4255D22C4BC1
:1041D8009C6000204EE0002001F0F4FF2F4B1E6889
:1041E800A61B06F29516012001F0ECFF79E70020E6
:1041F80001F0E8FF224B9D68284B1B68ED1A05F279
:104208009515012001F0DEFF7CE7002001F0DAFFC0
:10421800224B1E68A61B06F29516012001F0D2FF5C
:1042280090E7002001F0CEFF154B9D681B4B1B68E3
:10423800ED1A05F29515012001F0C4FF93E700205F
:1042480001F0C0FF154B1E68A61B06F2951601204B
:1042580001F0B8FFA8E7002001F0B4FF084B9D6803
:104268000E4B1B68ED1A05F29515012001F0AAFF07
:10427800ABE7FF2070BD0020FCE70020FAE700BF95
:10428800E8000020D0090020650B0020C00B0020AA
:10429800A8090020CC6A00086C0B0020680C0020DC
:1042A800700B0020C80B0020F8B506469D4B1B88F4
:1042B8009BB223B19B4B1B889BB20A2B04D94FF4AA
:1042C8008061994801F0C7FD00252FE0002001F02A
:1042D80079FF671C954B3A019918985824011A19C7
:1042E80018518B889BB29380012001F06BFFFCB2C0
:1042F800A2B28C4B1B889BB29A42E7D3002001F0F4
:1043080061FF884B1B889BB26BB1864A1388013BBF
:104318009BB213801188854B0901002058501288E0
:1043280003EB02139880012001F04CFFAAB27D4BE9
:104338001B889BB29A420ED22B017C4AD258117824
:1043480053781B0143EA1113B34202D00135EDB291
:10435800ECE72C46CCE7764B4FF0FF329A60754B72
:104368001C6874B3744B9C4203D303F295139C42AC
:1043780004D340F209116C4801F06DFD6F4B1B68C6
:104388009C4240F28180002001F01CFF6B4B1E68AC
:10439800A61B012001F016FF654B9A68674B1B6846
:1043A8009A427DD9002001F00DFF614B9D68634B57
:1043B8001B68ED1A012001F005FFAE4201D25C4BEB
:1043C8009C605F4B1C686CB35B4B9C4203D303F24D
:1043D80095139C4204D340F20911534801F03BFD68
:1043E800564B1B689C4269D9002001F0EBFE534BE9
:1043F8001E68A61B012001F0E5FE4D4B9A684F4B45
:104408001B689A4266D9002001F0DCFE484B9D6883
:104418004A4B1B68ED1A012001F0D4FEAE4201D2CE
:10442800434B9C60414B1C686CB3434B9C4203D389
:1044380003F295139C4204D340F209113A4801F063
:104448000AFD3E4B1B689C4252D9002001F0BAFE7F
:104458003A4B1E68A61B012001F0B4FE344B9A6843
:10446800364B1B689A424FD9002001F0ABFE304B07
:104478009D68324B1B68ED1A012001F0A3FEAE4285
:1044880001D22B4B9C60F8BD002001F09BFE2B4B0A
:104498001E68A61B06F29516012001F093FE7BE725
:1044A800002001F08FFE224B9D68244B1B68ED1AFB
:1044B80005F29515012001F085FE7EE7002001F048
:1044C80081FE1E4B1E68A61B06F29516012001F000
:1044D80079FE92E7002001F075FE154B9D68174B99
:1044E8001B68ED1A05F29515012001F06BFE95E7A2
:1044F800002001F067FE114B1E68A61B06F29516F8
:10450800012001F05FFEA9E7002001F05BFE084BE7
:104518009D680A4B1B68ED1A05F29515012001F0FC
:1045280051FEACE7C40B0020CC6A0008C80B002081
:10453800E8000020A8090020D0090020680C00200D
:10454800700B0020F8B505460F4616461C46224B50
:104558001B889BB2092B26D8204B1B684BB1204ADD
:104568001968116099889B79918093711B4B00227F
:104578001A60002001F026FE1A4B1B78DBB2012BD3
:1045880017D0012001F01EFE134B1B889BB203B30A
:10459800154B1A683A609A8832809A682A601B7BA1
:1045A80023700020F8BD40F22941104801F053FC67
:1045B800D2E70C4B00221A700D4B19680D4B186886
:1045C800FEF74CFD0028DCD0D921084801F043FC57
:1045D800D7E7FF20E6E700BFC40B0020E800002073
:1045E800D0090020650B0020C80B0020CC6A000809
:1045F8006C0B0020680C0020034B1B889BB20BB986
:1046080000207047FF207047C40B002010B5084BEE
:1046180000245C7702221A77064B1C7004E02046BF
:1046280001F09AFF0134E4B2012CF8D910BD00BFA3
:104638006C0C0020F800002008B5FFF7E7FF002306
:1046480008E0C3EBC30251000C4A0A440021D1839D
:104658000133DBB299B2094AB2F8642092B29142AE
:10466800EFD3002306E0054A02EB43020021518004
:104678000133DBB2012BF6D908BD00BF6C0C00205A
:1046880010B5104B1B78012B02D00446A3B110BD06
:1046980000230C4A13700C4A5377012B09D80A4A95
:1046A80002EB4302528892B2002AF0D00133DBB207
:1046B800F3E7FFF7ABFFEAE702F024F8024B1C77B9
:1046C800E5E700BFF80000206C0C002038B505466F
:1046D80002F018F801F07CFD044601F079FD001B9A
:1046E8000128FAD9284601F037FF01F071FD001BB7
:1046F8000228FAD90B4B03EB45034FF6FF725A8099
:10470800284602F01FF8034608B9184638BD28465F
:1047180001F0D8FF0123044A1370024A1577537732
:10472800F3E700BF6C0C0020F800002038B5002427
:1047380001E00134E4B2012C11D80C4B03EB440323
:104748005B889BB2002BF4D12046FFF7BFFF50B91E
:10475800064B03EB44054FF6FF736B80E9E7FFF761
:1047680055FFFF2038BD0020FCE700BF6C0C00207F
:104778007047000082B00378DBB28DF804309DF8F2
:10478800043013F0100F05D19DF8043003F00F0327
:104798000F2B04D0044B02221A7602B07047024B4A
:1047A80001221A76F9E700BF6C0C002010B5044608
:1047B8000078FDF7ABFD2C4B1A885B889A4223D30F
:1047C8009A4225D9294A1268D118C9790133134464
:1047D800DB7941EA03232449898899421DD0244979
:1047E8000B7B43F010030B73937803F00F03012B3B
:1047F80036D0937803F00F03062B31D0FEF7D6FF9F
:104808001B4B1C4A9A6007E01B49204601F0A8FF91
:10481800154A13880133138010BD937803F00F03F2
:10482800012B0DD0937803F00F03062B08D00F4B04
:104838001B681B79DBB2012B05D0FEF7F1FFDFE720
:1048480000F0B6FCF3E70A4C23886FF30B032380D0
:10485800FFF7F2FE0020FDF7D5FC00232376CFE713
:1048680000F0A6FCCAE700BFFA000020680C002090
:104878006C0C002079470008FE000020024B002243
:104888001A73024A9A6070476C0C0020B14A0008FB
:1048980008B5094B002119804FF6FF729A80074B23
:1048A80019741A7B61F386121A73054A9A600120FB
:1048B80001F056FD08BD00BFFA0000206C0C002076
:1048C800B14A000808B50B4B9A680B4B9A4209D0BD
:1048D800084B9A68094B9A4204D0064A137B43F066
:1048E80020031373FEF762FFFFF7D2FF00F0ECFC22
:1048F80008BD00BF6C0C0020B14A000879470008C9
:1049080030B4837803F00F03062B48D8DFE803F0B0
:104918000D0D2D0447040400224830BC7047204682
:104928001830214B18440630F7E700231E4AB2F826
:10493800642092B29A4210D901784278120142EA70
:104948001112C3EBC3014C0017492144C98B89B22A
:104958008A42E4D001339BB2E8E70020DDE7204635
:104968001830114B18440630D7E700230E4AB2F826
:10497800642092B29A4210D901784278120142EA30
:104988001112C3EBC3014C0007492144098C89B2B9
:104998008A42E4D001339BB2E8E70020BDE700205B
:1049A800BBE700BF8A0C00206C0C002010B4837891
:1049B80003F00F03062B6BD8DFE803F00904233D4F
:1049C8006A4F4A00374A137B6FF3041313730023AB
:1049D800344AB2F8642092B29A4210D901784278E7
:1049E800120142EA1112C3EBC3014C002D492144C4
:1049F800C98B89B28A424DD001339BB2E8E70020C7
:104A080040E00023274AB2F8642092B29A4210D9B3
:104A180001784278120142EA1112C3EBC3014C003B
:104A280020492144098C89B28A4235D001339BB28E
:104A3800E8E7002026E0027843781B0143EA1213D6
:104A480040F6FF72934201D000201BE0012019E0DC
:104A5800144A137B6FF304131373027843781B0112
:104A680053EA121307D10F4A127FD2B2022A02D098
:104A78000C4A527F92B10B4A1288C2F30B0293423E
:104A880003D000205DF8044B70474BB10120F9E7D3
:104A98000020F7E70120F5E70120F3E70120F1E71F
:104AA8000020EFE76C0C002010B504460078FDF7F5
:104AB8002DFC294A138801339BB21380032B12D093
:104AC800072B1ED0012B04D02449204601F048FEB4
:104AD80010BD234B01221A7400221A761E4B4FF682
:104AE800FF729A80F0E71F4B1868FFF75FFF0028F6
:104AF800EAD1194B5988FDF7C9FB194B1A4A9A6034
:104B0800E6E7154B00221A80154B184A9A60154B98
:104B18001B68B3F80520802A0FD90F4B80225A80D2
:104B28000F4B1B7B13F0400F0CD10B4B59880029FE
:104B3800CAD00120FDF7AAFBC6E7B3F80520064B4B
:104B48005A80EDE7044B59880020FDF79FFB044B82
:104B5800054A9A60BCE700BFFA000020FE0000206A
:104B68006C0C0020680C002079470008B547000845
:104B780038B505462E4B58692E490A88531C9BB2F6
:104B88000B80815C2A78D2B2914218D1284A127CD3
:104B9800AAB1274A127B12F0400F10D1042B30D152
:104BA800002001F0C9FB002001F0DCFB204B1B7E3C
:104BB800DBB2022B38D01E4B1F4A9A6025E01C4BF3
:104BC80001225A76002001F08DFB002408E0184BE2
:104BD8005B6918782044C0B2FDF798FB0134E4B251
:104BE800144B1B88013B9C42F1DB2878FDF78EFBB8
:104BF8000F4B114A9A6002221A760E4B1B88934279
:104C080004D80E49284601F0ABFD38BD0C4B186896
:104C1800FFF7CCFE0028F4D1064B5988FDF736FB88
:104C2800034B084A9A60F0E7014B074A9A60ECE7A1
:104C38006C0C0020FA000020B14A0008FE00002099
:104C4800680C0020794700087D47000870B50446C5
:104C5800837803F00F03062B57D8DFE803F00C0C1A
:104C68002C575E7A7A0018304A4B18442146063091
:104C7800FDF75CFB49E00023464AB2F8642092B293
:104C88009A4242D921786278120142EA1112C3EBA2
:104C9800C30148003F490144C98B89B28A42E2D026
:104CA80001339BB2E8E718303A4B184421460630E6
:104CB800FDF73CFB29E00023364AB2F8642092B2A3
:104CC8009A4222D921786278120142EA1112C3EB82
:104CD800C30148002F490144098C89B28A42E2D0B5
:104CE80001339BB2E8E7C5EBC50358001830294BE0
:104CF800184421460630FDF719FB0135ADB2254BA6
:104D0800B3F864309BB2AB42EDD870BD0025F6E72E
:104D180021462846FDF70AFBF7E700261D4BB3F8A6
:104D280064309BB2B342F0D9C6EBC603580000F119
:104D38001805184805440635217863781B0143EAAD
:104D48001111284600F00EFA0028E1D10136B6B25A
:104D5800E4E7027843781B0153EA121301D00025D7
:104D680010E001460C48FDF7E1FACEE7C5EBC503B4
:104D780058001830074B184421460630FDF7D6FA7C
:104D88000135ADB2034BB3F864309BB2AB42EDD8FA
:104D9800BBE700BF6C0C00208A0C002070B50646EB
:104DA800104C0025A4F86450238865F30B03238076
:104DB800238865F30F3323802574657625760A4B9F
:104DC8000A4A1A60FFF75AFD3046FDF71BFA01F050
:104DD8006DFCFFF731FC2573237B43F00F0323732E
:104DE80070BD00BF6C0C0020D40C002040420F00A6
:104DF80010B4194BB3F86420C2EBC2025100194435
:104E08000884B3F86420C2EBC202510019440020A0
:104E1800C883B3F86420C2EBC20251001944C884A5
:104E2800B3F86410C1EBC1014A001A4402F1280129
:104E3800148D1085528D4880B3F8642092B2511CAD
:104E480089B2A3F86410C2EBC202500018301844AB
:104E580006305DF8044B70476C0C00202DE9F041DA
:104E680082B007460C460B786FF303030B70038878
:104E7800BBB1C3F30B0303F00F01A27802F00F02DA
:104E880042EA0112A2701B09E370B4F80560802E93
:104E980000D9802606F10905ADB200214FF6FF784A
:104EA8001EE02B4B1B88C3F30B0303F00F01A27802
:104EB80002F00F0242EA0112A2701B09E370E4E754
:104EC8000133DBB29046072B08D84FEA480292B26A
:104ED80018F4004FF4D082F00702F1E7013189B2EB
:104EE800AB1E994206DA635C88EA03281FFA88F841
:104EF8000023E8E72046FFF759FDA37803F00F03E6
:104F0800012B12D0062B10D00023019300902B46C2
:104F1800424621463846FDF791FDFF2802D000F0B1
:104F280057F9002002B0BDE8F08160B122786378BB
:104F38001B0153EA121308D0054B1B7BDBB206F1A9
:104F48000A05ADB2E1E70346DFE70023DDE700BF6E
:104F58006C0C002030B5A3B00446FFF7E7FB00282F
:104F68003DD10023237263729DF80220012161F371
:104F780003028DF80220BDF8002061F30F12ADF88E
:104F880000208DF804308DF805308DF8063069461C
:104F98002046FFF763FFFFF72FFBFF28FBD023898D
:104FA8005BB1104B1A7F03EB42024FF6FF71518041
:104FB80002221A7700225A77CFE701F009F905464D
:104FC800084B5B7F002BC8D000F0AAF801F000F96D
:104FD800401BB0F57A7FF3D9FF2023B030BD002005
:104FE800FBE700BF6C0C002070B5A4B00446FFF7C7
:104FF80087FC2379012B06D006463BB1022B00F033
:105008008180FF2000E0002024B070BDB4F8053096
:10501800022B2BD0042B54D00BB10020F4E73E4ACE
:10502800138801339BB2138000258DF80C5002239E
:105038008DF80D308DF80E50A178E3781B0143EA06
:105048001113BDF8081063F30F11ADF808109DF89F
:105058000A30062161F303038DF80A301388ADF88E
:105068000F3002A9FFF7FAFE2846CDE72B4B1A7F2F
:10507800B4F8071003EB42025180ADF806101B8804
:10508800C3F30B03ADF8043000248DF80C4004235F
:105098008DF80D308DF80E40BDF8083064F30F130D
:1050A800ADF808309DF80A30062262F303038DF844
:1050B8000A30019BCDF80F3002A9FFF7CFFE20463A
:1050C800A2E7164B1B88C3F30B0393B9D4F8072048
:1050D800C2F30B40114B198860F30B011980197F3B
:1050E80092B203EB41035A803046FFF733FF0020AA
:1050F8008AE70A4B1A886FF30B021A800020FDF723
:1051080081F8E3E7FFF778FAFF28FBD0D4F8070027
:1051180001F062F8002077E7000100206C0C002005
:1051280000B583B0FEF7A4FA0023019301A8FEF7A7
:1051380049FF40B90198FFF757FFFF28F6D10198BA
:10514800FFF784FDF2E703B05DF804FB0048704701
:105158006C0C0020024B1A8860F30B021A8070470F
:105168006C0C002010B400239AB28488A24207D2A3
:1051780000EB4302D2888A4206D00133DBB2F3E760
:1051880000205DF8044B70470120FAE708B5074B8B
:105198001B7CDBB2012B06D001F096F9034A137C85
:1051A8001843C0B21074014B187C08BD6C0C002069
:1051B80010B5002001F0C0F8044C0121204601F090
:1051C8003BF90C3C0F23237310BD00BF780C002063
:1051D80030B585B0002303930DF109030DF10A02E0
:1051E80003A901A8FFF7AEF908B105B030BDFFF774
:1051F800CDFF0028F9D1019BD3F80A2011782F4B55
:105208001B78994201D3092B27D91370019BD3F836
:105218000A201278092A20D9294A527E32B10399E4
:1052280008784A78120142EA10121A810023234AA8
:105238001370234A5376039B18785B781B0143EA63
:105248001010FFF731F80DF109030DF10A0203A957
:1052580001A8FFF777F9FF28C7D0039A937803F0DE
:105268000F03012B1BD0062B19D00125FFF78EFF4A
:105278000028BAD1124C25760125257401F070F862
:10528800002000F09FFF0F4BA360284600F09AFF14
:1052980003986061BDF80A1001F0CEF8A5E79DF803
:1052A80009303BB1117853781B0153EA111303D02D
:1052B8000125DBE70225D9E70225D7E7020100200F
:1052C8006C0C0020794B000810B5154B1B7EDBB227
:1052D800012B07D0124B1B7EDBB2022B0AD0FFF743
:1052E80077FF10BD00230F4A13700D4A5376FDF760
:1052F8007DFDF4E70B4A13780133DBB21370084CD9
:105308002288C2F30B0202FB033303EB83039800EA
:1053180080B201F027F80123237400232376E0E705
:105328006C0C00200201002000230E4A12889A42C9
:1053380016D910B4C3EBC301CA000B498A5882427C
:1053480007D001339BB2074A12889A42F2D800204C
:1053580003E0C3EBC304E00008445DF8044B704766
:1053680000207047D80C0020F00C00200023094AC8
:1053780012889A4209D9C3EBC301CA0006490A44F4
:10538800824204D001339BB2F1E74FF6FF7318460F
:10539800704700BFD80C0020F00C002030B5A3B037
:1053A800002408E0C4EBC403384A02EBC3039B8D16
:1053B8003BBB0134A4B2364B1B88A34263D92546B4
:1053C800C4EBC403314A52F833301B88002BE9D1AF
:1053D8001146E000021B01EBC20282F82E3082F86F
:1053E8002F3082F82C3082F82D30021B01EBC202DC
:1053F80082F8283082F8293082F82A3082F82B3057
:10540800D7E700F0E5FEC4EBC403204A02EBC30370
:1054180053F8282F801A9B889842CAD3C4EBC40239
:105428001A4B03EBC202134653F8281B0888BDF831
:10543800001060F30F11ADF80010D988BDF80230E4
:1054480061F30F13ADF80230012161F303038DF806
:1054580002300D238DF8043000238DF805308DF8C7
:105468000630536833B1C4EBC4006946074A02EBFF
:10547800C000984700F0ACFEC5EBC505034B03EB35
:10548800C505A86295E723B030BD00BFF00C002029
:10549800D80C002008B50B2916D8DFE801F0080859
:1054A800080E0606061212121206002008BD9C21DC
:1054B800084800F0D0FCFF20F8E7436833B100202B
:1054C800F4E72AB90020F1E7FF20EFE7FF20EDE736
:1054D800FF20EBE7086B000808B50A460B4B198854
:1054E8004FF6FF7399420FD0084B1968084B03EA2F
:1054F800812303F1FF6303F5FF2300EB0010102164
:10550800184401F041F908BD024BF6E7E075FF1FAA
:1055180000FCFF0300F8010810B50C46FFF726FF52
:105528004FF6FF73984204D02146FFF7D5FF0020BD
:1055380010BDFF20FCE7000010B50C46154B1A887B
:105548004FF6FF739A4220D0124B1A68124B03EAA7
:10555800822303F1FF6303F5FF2300EB00102246CB
:105568001021184401F074F92378A3F14101C9B25C
:10557800A3F16102D2B2B3FA83F35B09192988BF98
:10558800192A04D81BB9002010BD044BE5E7FF20F9
:10559800FAE700BFE075FF1F00FCFF0300F80108F1
:1055A80008B50023034A1380034803608380FFF78C
:1055B800F5FB08BDD80C0020E80C00202DE9F043CD
:1055C80083B08146164601933F4B1C88E3001B1BA2
:1055D800DF00DFF8F88007EB08050846FFF708FC4E
:1055E80048F80700C5F8049000230E2B0BD8F15C8F
:1055F800C4EBC402D000354A02441A44117211B1F6
:105608000133DBB2F1E73148E1000F1BFA0017461E
:105618000244134400221A723B46183319181A50D0
:105628004A608A60CA60284B1888FFF785FFFF2800
:1056380009D0C4EBC403DA003032244950180023DF
:105648005352837025E000230E2B0BD8F15CC4EB7A
:10565800C402D0001D4A02441A44117611B1013324
:10566800DBB2F1E7C4EBC402D100184A0A44134480
:1056780000221A76DDE702AA1A4412F8040CC4EBD9
:10568800C402D100114A0A441A4482F83000013396
:10569800DBB2022BEFD90D48E200131BD9000144FD
:1056A8000B4BC1F833300968141BE3003033034453
:1056B8000733C1F80A30044A138801331380284697
:1056C80003B0BDE8F08300BFD80C0020F00C002028
:1056D800E80C002008B5034630B11868FFF7BEFB98
:1056E800FF2800D0002008BD004BF6E7F00C002092
:1056F8002DE9F8430D469146FFF738FE4FF6FF7344
:10570800984255D004462C4B53F8203023B9B5F8AD
:105718000520294B43F82020B5F80520264B53F8DF
:1057280024309A4230D8244B9B8A23B1803BB5F869
:10573800052093422EDCB5F80560802E00D980261E
:105748001D4F07EB8408D8F818003246E91D484475
:1057580001F06CF9D8F818301E44C8F81860B5F88C
:105768000530BB8257F824309E421BD8B5F8053067
:10577800802B1FD8104B03EB840200209061988285
:1057880043F82400BDE8F8834FF430710B4800F06B
:1057980062FBC8E7084B03EB84040022A2619A82EB
:1057A800FF20EFE740F2DF21044800F054FBDDE77B
:1057B800FF20E7E7FF20E5E704010020086B000869
:1057C80008B500F005FD08BD2DE9F04F83B005468A
:1057D8000C4693469946802B0CD9DB09B9EBC31FBD
:1057E800CCBF4FF0010A4FF0000A9A440027ADF8E9
:1057F80006700DE04FF0010AF8E74FF0800812E05C
:105808004744BFB2BDF8063001339BB2ADF806304D
:10581800BDF806309BB2534526D2A9EB0703802B6F
:10582800EBDC1FFA83F842460BEB0701E01D01F0A1
:10583800FDF8A9EB0703A4F80530FFF7C1FF0646FA
:1058480021462846FFF746FFFF28D9D100F02CFA59
:10585800FFF7B6FF801BB0F5FA7FF1D340F29F2126
:10586800034800F0F8FAEBE703B0BDE8F08F00BF9B
:10587800086B00082DE9F84300AF804689461C4BA9
:105888001B88013303EB4303C3EBC303073323F044
:105898000703ADEB030D6E46FFF758FC014668465B
:1058A80000F03CFB0024012010E0451CADB2C4EB25
:1058B800C402D30000EB4000C0EBC0000D491944FE
:1058C800304400F03CFB0134A4B22846084B1B8846
:1058D8009C42EAD300EB4000C0EBC00083B23246E2
:1058E80049464046FFF770FFBD46BDE8F88300BF54
:1058F800D80C0020F00C0020F0B5C9B005460C46C5
:1059080000F0B6FB064600F0B7FB00EB4000C0EB2A
:10591800C00006442379033B082B00F2A681DFE888
:1059280013F00900140038018301CE007700A300AA
:1059380003019F01A078E3781B0143EA101000F0EF
:1059480053FBFF26304649B0F0BDB4F805705FB38D
:10595800022F44D100F07CFBB4F80700012813D0D3
:1059680000231DE001339BB2C54A12889A421BD915
:10597800C3EBC302C34850F8322010880128F1D085
:10598800881C10800131EDE700231946ECE7C3EBD2
:10599800C301BC4A52F831201918118001339BB257
:1059A800B74A12889A42F2D804238DF89C309DF8A1
:1059B8009A30012262F303038DF89A30A278E378D3
:1059C8001B0143EA1213BDF8982063F30F1248A98C
:1059D80021F8882D2846FFF74DFF0026B2E7374407
:1059E80000F046FB00F55270874208D8324621463F
:1059F8002846FFF77DFE064638B10026A2E740F2AA
:105A08000111A14800F027FAF0E700F061FA99E7E0
:105A1800B4F80530002B40F02A8108238DF81030A7
:105A28009DF80E306FF303038DF80E302B4633F8D4
:105A3800302F9B78ADF813208DF8153000260323FE
:105A48008DF811308DF81260A278E3781B0143EAD3
:105A58001213BDF80C2063F30F12ADF80C2003A944
:105A68002846FFF737FE6DE7B4F80530002B40F005
:105A7800008109238DF810309DF80E306FF3030371
:105A88008DF80E30814B1A889B78ADF813208DF86D
:105A98001530002603238DF811308DF81260A27896
:105AA800E3781B0143EA1213BDF80C2063F30F12CD
:105AB800ADF80C2003A92846FFF70CFE42E7B4F81E
:105AC8000530002B40F0D78007238DF810309DF863
